:1000000071C0000086C0000084C0000082C00000F3
:1000100080C000007EC000007CC000007AC00000EC
:1000200078C0000076C0000074C0000072C00000FC
:1000300070C000006EC000006CC000006AC000000C
:1000400068C0000066C0000064C0000062C000001C
:1000500060C000005EC000005CC000005AC000002C
:1000600058C0000056C0000054C0000052C000003C
:1000700050C000004EC000004CC000004AC000004C
:1000800048C0000046C0000044C0000042C000005C
:1000900040C000003EC000003CC000003AC000006C
:1000A00038C0000036C0000034C0000032C000007C
:1000B00030C000002EC000002CC000002AC000008C
:1000C00028C0000026C0000024C0000022C000009C
:1000D00020C000001EC000001CC000001AC00000AC
:1000E00018C0000011241FBECFEFD1E2DEBFCDBF8C
:1000F00000E00CBF12E0A0E0B2E0EEEDF2E000E0C4
:100100000BBF02C007900D92A830B107D9F785D078
:10011000E4C076CF81309105C9F082309105C1F0FD
:1001200083309105B9F084309105B1F085309105A7
:10013000A9F086309105A1F08730910599F08830BB
:10014000910591F0099791F080E008958FEC089562
:1001500084EA089580EB089589E9089582E9089575
:1001600082E8089588EF089580E8089580E9089569
:10017000CF92DF92EF92FF920F931F93CF93DF9373
:10018000CDB7DEB727970FB6F894DEBF0FBECDBF51
:100190008C0187E0E0E0F2E0DE01119601900D9223
:1001A0008A95E1F7101611064CF57E01E00EF11E5E
:1001B0006894CC24C1F8DD24D394083011056CF484
:1001C000F7018081F6018083FFE52AEE80E0F1509F
:1001D00020408040E1F700C00000C8019BDF81BBE8
:1001E000E7EAF1E63197F1F700C00000015011098C
:1001F000F1E0EF1AF10801151105F9F627960FB68F
:10020000F894DEBF0FBECDBFDF91CF911F910F914C
:10021000FF90EF90DF90CF9008958FEF80BB10920A
:10022000010197E0909307018093060108E011E037
:100230000F2EF3E0AF2EF02D6894EE24E1F8FF24AA
:10024000F394C6E0D1E00F2EF5E0BF2EF02D0F2E77
:10025000F6E0CF2EF02DDD24DA94F801A082F7012C
:100260001082D1BA888183FD03C081E090E080DFF5
:10027000888184FD03C084E090E07ADF888185FD79
:1002800003C087E090E074DFF801B082888183FDCD
:1002900003C082E090E06CDF888184FD03C085E0CC
:1002A00090E066DF888185FD03C088E090E060DF34
:1002B000F801C082888183FD03C083E090E058DFAD
:1002C000888184FD03C086E090E052DF888185FD4F
:0E02D000C4CF89E090E04CDFC0CFF894FFCFA0
:0802DE00010204081020400099
:00000001FF
